S00B00007274632E73726563D0
S113000028C037C036C036C034C033C0A6C131C0E2
S113001030C02FC02EC02DC02CC02BC02AC029C078
S113002028C027C026C097C18AC195C18AC193C17F
S11300308AC191C190C189C18EC189C18CC12DC2AF
S113004032C237C23CC241C246C24BC250C255C280
S11300505AC211241FBECFE5D4E0DEBFCDBF20E0DD
S1130060A0E6B0E001C01D92AE37B207E1F7D0D0F0
S113007059C2C6CF1F920F920FB60F9211248F93BD
S113008081E0809360008F910F900FBE0F901F90BE
S1130090189585B58F6085BD82EB83BD89B780686F
S11300A089BF78940895EF92FF920F931F93CF9393
S11300B08C017B01FB016381CDEC6C9F612D1124CC
S11300C066956695669540E0D6D1F70163816C9F8D
S11300D0812D1124869586958695880F982F990FE2
S11300E0990F890F681B41E0C801C5D1F7016481EC
S11300F06C9F612D112466956695669542E0C80152
S1130100BAD1F70164816C9F812D1124869586955F
S11301108695880F982F990F990F890F681B43E0D4
S1130120C801A9D1F70165816C9F612D11246695E1
S11301306695669544E0C8019ED1F70165816C9F80
S1130140812D1124869586958695880F982F990F71
S1130150990F890F681B45E0C8018DD1F7016081B3
S11301606C9F612D112466956695669546E0C801DD
S113017082D1F70160816C9F812D1124869586952B
S11301808695880F982F990F990F890F681B47E060
S1130190C80171D1F70161816C9F612D11246695AD
S11301A06695669548E0C80166D1F70161816C9F48
S11301B0812D1124869586958695880F982F990F01
S11301C0990F890F681B49E0C80155D1F701628175
S11301D06C9F612D11246695669566954AE0C80169
S11301E04AD1F70162816C9FC12D1124C695C69531
S11301F0C695CC0F8C2F880F880FC80F6C1B4BE053
S1130200C80139D1CF911F910F91FF90EF900895BC
S1130210CF93DF9300D000D000D0CDB7DEB701D1AB
S11302207C013BD08C0135DF8BE08E838FE08D83A6
S113023082E18C8385E18B8399E09A838983BE0173
S11302406F5F7F4FC80147D0BE016F5F7F4FC7010B
S11302502ADF80916000813021F410926000C70190
S1130260F7D0C8015BD08130A1F7BE016F5F7F4F2B
S1130270C8014CD0BE016F5F7F4FC70114DFE9CFC7
S11302801FBC8EB58D608EBD88E09DE39BBD8ABD8D
S113029089B7806189BF78940895CF93DF93809163
S11302A06F00811113C0E1E6F0E081E0868786E00B
S11302B0DF01C82F1D92CA95E9F7A7E6B0E0ED016A
S11302C019928A95E9F714861586DADF81E690E0BB
S11302D0DF91CF910895FC01DB0112968C91129766
S11302E0808713968C911397818714968C91149719
S11302F0828711968C911197878315968C91159707
S113030083878C91868381E084870895FC0196E03D
S1130310DB0101900D929A95E1F70895FC01858522
S1130320813011F41586089580E0089590E0FC0171
S11303303197EC30F10568F4ED5EFF4F09948CE1E0
S113034008958EE108958EE108958EE108958EE179
S113035008958EE108958FE108951F920F920FB6CC
S11303600F9211242F933F934F935F936F937F9337
S11303708F939F93AF93BF93CF93DF93EF93FF93A9
S113038080916D00813059F410926D0086E0E7E6AB
S1130390F0E0A1E6B0E001900D928A95E1F7E1E684
S11303A0F0E085818F5F85838C3341F584818F5F95
S11303B0848315828C3311F583818F5F8383148248
S11303C08831E1F41382C281CF5FC283D1818D2F42
S11303D0ADDFC81313C081E080936300DF5FDD30BD
S11303E019F0D093620007C0E1E6F0E081E0818378
S11303F080818F5F808381E080936E00FF91EF9115
S1130400DF91CF91BF91AF919F918F917F916F9128
S11304105F914F913F912F910F900FBE0F901F90BE
S1130420189580917D00811110C04CE050E06EE77A
S113043070E080E790E06FD0E0E7F0E081E085874E
S113044014868FEF87BB84BB889A80E790E0089579
S1130450FC01909A8485DF01A80FB11D8C9188BBA3
S1130460848585BB909884858F5F8C3011F0848758
S11304700895148608950F931F934C3008F048C0D4
S11304806A3008F045C0062F10E00A30110508F064
S11304903FC0F801E15EFF4F0994FC01E40FF11D38
S11304A02EE7208335C0FC01E40FF11D20E32083F7
S11304B02FC0FC01E40FF11D2DE6208329C0FC01AF
S11304C0E40FF11D29E7208323C0FC01E40FF11D93
S11304D023E320831DC0FC01E40FF11D2BE52083E1
S11304E017C0FC01E40FF11D2FE5208311C0FC01AE
S11304F0E40FF11D20E720830BC0FC01E40FF11D84
S11305002FE7208305C0FC01E40FF11D2BE72083B6
S11305101F910F910895DC0101C06D93415050402B
S10B0520E0F70895F894FFCF01
S9030000FC
